:04000000FEEF7FF0A0
:10FD3900011200120012000A6A120003011E8F123A
:10FD49000001C508F502C509F51200C9EC7EF03FAE
:10FD5900EC7FF0BEEC7EF0F3EC7EF004EF7FF00B6D
:10FD6900506BEC7FF0030E0B1802E10B6A12000BCB
:10FD79002A1200000100D0A46B220EA56FA66BA762
:10FD89006BA96B800EA36F800C620E0001AD6F70C2
:10FD99000EAE6FAF6BB36B020EB16FB26BB06BACE3
:10FDA9006B1200026E0A0E0224D96EDA6A050EDAA7
:10FDB9002201B002D0DF9801D0DF881200390EF697
:10FDC9006EFD0EF76E000EF86E09006100D4F30B9C
:10FDD900F50A6A000EF86E000118EF7FF0040E03B1
:10FDE90001206F1F6B216B030E1D6F1C6B000E0131
:10FDF9006A026AA5EC7EF0B696B00E1E6FB00CD6FC
:10FE09009AB490D680000E016A026A9DEC7EF0B920
:10FE190090D682000E016A026A9EEC7EF0BD90D6F1
:10FE290084016A026A000CAAEC7EF0000E6BEC7F7A
:10FE3900F0A0EC7EF0A2EC7EF0076AB6A60BD0B675
:10FE490096072A010ED0B8000E016E000ED6EC7E80
:10FE5900F0B1EC7FF0FA0E0718F0E1010EC0AA002C
:10FE69000EFF0A066E063A0646C0500618DF0B0654
:10FE790018C06EE2D7BE6ABF6A020EC06E1D0EC6FA
:10FE89006EF00EC76EDB0EC86E150E0401006FF022
:10FE99000E086FCF0E106F016B096B010E116F0207
:10FEA9006B0A6B126B370E036FF00E0B6F13693F02
:10FEB9000E046FF00E0C6F1469056B066B076B0D62
:10FEC9006B0E6B0F6B156B166B176B1200036E23A2
:10FED900D0BE9ABE922FD8A46B020EA56FA66FA7AB
:10FEE9006BA96B880EA36F880CBE8ABE9223D83F7C
:10FEF9000EA46F120EA56F820E25D0BE9ABE821A6D
:10FF0900D83A0EA46F130EA56F800E1CD0BE8ABE00
:10FF19008A11D8C0EF7EF00350016E026A0250D8F0
:10FF2900A412000150D5E0010ADFE0030AE6E0016E
:10FF39000AEDE012000001A36BA46BA56BA66BA7E9
:10FF49006BA96B1200A66FA76BA96BA4518F0B301D
:10FF590009A46F800EA36F800C056A3ED8DFA81C28
:10FF6900D03BD8DF500F0B0F0A17E036D8DF500F00
:10FF79000B046E042A38D830D8DF500F0B0C0A0254
:10FF8900E12BD8DF8C29D8DFAC07D026D8DFBA041B
:10FF9900D0B4EC7EF021D8DF8A1FD8DFB819D01C85
:10FFA900D8DF500F0B15E018D8DF500F0B046E0483
:10FFB900061AD812D8DF500F0B040A02E10DD8DF58
:10FFC9009C0BD8DFBC05D008D8DFAA02D005D8DF42
:10FFD9009A052A0550C2E012000A0E0524D96EDAE4
:10FFE9006A050EDA221200DF500418F00B0418DF3C
:07FFF9006E1200E3EF7EF041
:020000040020DA
:10000000FF0FFF0FFF0FFF0FFF0FFF0FFF0FFF0F80
:10001000FF0FFF0FFF0FFF0FFF0FFF0FFF0FFF0F70
:020000040030CA
:0A0000008CFFF7FF9FFFFFFFFFFFDB
:00000001FF
