:020000040000FA
:040000000DEF00F010
:0400080061EF01F0B3
:10001800FF00FAEF00F0056A3ED8DFA81CD03BD8F5
:10002800DF500F0B0F0A17E036D8DF500F0B046EA6
:10003800042A38D830D8DF500F0B0C0A02E12BD82D
:10004800DF8C29D8DFAC07D026D8DFBA04D06DEC16
:1000580001F021D8DF8A1FD8DFB819D01CD8DF50AB
:100068000F0B15E018D8DF500F0B046E04061AD8D2
:1000780012D8DF500F0B040A02E10DD8DF9C0BD811
:10008800DFBC05D008D8DFAA02D005D8DF9A052A38
:100098000550C2E012000A0E0524D96EDA6A050E70
:1000A800DA221200DF500418F00B0418DF6E120079
:1000B800036E2AD0BE9ABE9236D8A46B020EA56FE4
:1000C800A66FA76BA96B880EA36F880CBE8ABE9219
:1000D8002AD83F0EA46F120EA56F820E2CD0BE9A9E
:1000E800BE8221D83A0EA46F130EA56F800E23D0BE
:1000F800BE8ABE8A18D8A46B220EA56FA66BA76B02
:10010800A96B800EA36F800C0350016E026A025027
:10011800D8A412000150CEE0010AD8E0030ADFE0BB
:10012800010AE6E012000001A36BA46BA56BA66BA5
:10013800A76BA96B1200A66FA76BA96BA4518F0BB5
:100148003009A46F800EA36F800CBE6ABF6A020ECE
:10015800C06E1D0EC66EF00EC76EDB0EC86E0401B3
:10016800006B086B040E106F016B096B010E116FA9
:10017800026B0A6B126B370E036FF00E0B6F13696D
:100188003F0E046FF00E0C6F1469056B066B076B5E
:100198000D6B0E6B0F6B156B166B176B120077ECF4
:1001A80001F0000E5CEC00F087EC01F084EC01F04B
:1001B800076AB6A60BD0B696072A010ED0B8000E6D
:1001C800016E000E47EC01F00FEC00F0FA0E071874
:1001D800F0E1010EC0AA000EFF0A066E063A0646B6
:1001E800C0500618DF0B0618C06EE2D71C0EF66E5C
:1001F800030EF76E000EF86E09006100D4F30BF5DC
:100208000A6A0401080E5D6F000E5E6F000E5F6FD4
:10021800000EF86E0001D3EF00F0D69AB490D680A5
:10022800000E016A026A8BEC01F0B990D682000ECA
:10023800016A026A8AEC01F0BD90D684016A026AFA
:10024800000C040E0301206F1F6B216B030E1D6F42
:100258001C6B180E016E030E026E7FEC01F0B69651
:10026800AB86300E1E6F300CB69608500910D8B405
:1002780012000500FA6E0850FD6E0950FE6EF85027
:10028800FF6EFA501200026E0A0E0224D96EDA6A64
:10029800050EDA2201B002D0DF9801D0DF88120003
:1002A800620E0001AD6F700EAE6FAF6BB36B020ED6
:1002B800B16FB26BB06BAC6B1200A8BEB3AE03D01B
:1002C8008DEC01F01100ABB6B6A6110038EC01F0C8
:1002D80011000B505CEC00F0030E0B1802E10B6AE6
:1002E80012000B2A120025EC01F054EC01F011EC7D
:1002F80001F0A9EF00F001C508F502C509F51200E3
:1003080003011E8F12000A6A120012001200120066
:050318001200120001BB
:020000040020DA
:10000000FF0FFF0FFF0FFF0FFF0FFF0FFF0FFF0F80
:10001000FF0FFF0FFF0FFF0FFF0FFF0FFF0FFF0F70
:020000040030CA
:0A0000008CFFF7FF9FFFFFFFFFFFDB
:00000001FF
