:04000000FEEF7FF0A0
:10FD3500011200120012000A6A120003011E8F123E
:10FD45000001C508F502C509F51200620E0001ADF6
:10FD55006FAF6BB36B020EB16FB06BAC6B1200A8DB
:10FD6500EC7EF03AEC7FF0C6EC7EF0EEEC7EF0FF38
:10FD7500EF7EF00B5068EC7FF0030E0B1802E10BE1
:10FD85006A12000B2A1200000103D8A00EA36FA06F
:10FD95000CA46B220EA56FA66BA76BA96B120002B4
:10FDA5006E0A0E0224D96EDA6A050EDA2201B00255
:10FDB500D0DF9801D0DF881200350EF66EFD0EF704
:10FDC5006E000EF86E0900F5C40BF50A6A000EF810
:10FDD5006E000113EF7FF0040E0301206F1F6B21EE
:10FDE5006B030E1D6F1C6B000E016A026AA3EC7E8D
:10FDF500F0B696B00E1E6FB00CD69AB490D68000B1
:10FE05000E016A026A9BEC7EF0B990D682000E0163
:10FE15006A026A9CEC7EF0BD90D684016A026A0093
:10FE25000CB2EC7EF0000E68EC7FF09EEC7EF0A04C
:10FE3500EC7EF0076AB6A60BD0B696072A010ED05F
:10FE4500B8000E016E000ED2EC7EF0B1EC7FF0FA38
:10FE55000E0718F0E1010EC0AA000EFF0A066E0695
:10FE65003A0646C0500618DF0B0618C06EE2D7BE2C
:10FE75006ABF6AC06A1D0EC66EF00EC76EDB0EC87D
:10FE85006E110E0401006FF00E086FCF0E106F019A
:10FE95006B096B116B0201876B866B0401026B0AA0
:10FEA5006B126B370E036FF00E0B6F13693F0E0469
:10FEB5006FF00E0C6F1469056B066B076B0D6B0EFF
:10FEC5006B0F6B156B166B176B1200036E26D0BE8E
:10FED5009ABE9232D8A46B020EA56FA66FA76BA926
:10FEE5006B880EA36F880CBE8ABE9226D83F0EA4DF
:10FEF5006F120EA56F820E28D0BE9ABE821DD83A0B
:10FF05000EA46F130EA56F800E1FD0BE8ABE8A1475
:10FF1500D8CBEC7EF0800EA36F800C0350016E02EF
:10FF25006A0250D8A412000150D2E0010ADCE003B5
:10FF35000AE3E0010AEAE012000001A36BA46BA545
:10FF45006BA66BA76BA96B1200A66FA76BA96BA419
:10FF5500518F0B3009A46F800EA36F800C056A3E8C
:10FF6500D8DFA81CD03BD8DF500F0B0F0A17E0369F
:10FF7500D8DF500F0B046E042A38D830D8DF500F65
:10FF85000B0C0A02E12BD8DF8C29D8DFAC07D02671
:10FF9500D8DFBA04D0BCEC7EF021D8DF8A1FD8DFC9
:10FFA500B819D01CD8DF500F0B15E018D8DF500F4B
:10FFB5000B046E04061AD812D8DF500F0B040A0280
:10FFC500E10DD8DF9C0BD8DFBC05D008D8DFAA022D
:10FFD500D005D8DF9A052A0550C2E012000A0E05A1
:10FFE50024D96EDA6A050EDA221200DF500418F001
:0BFFF5000B0418DF6E1200DFEF7EF03F
:020000040020DA
:10000000FF0FFF0FFF0FFF0FFF0FFF0FFF0FFF0F80
:10001000FF0FFF0FFF0FFF0FFF0FFF0FFF0FFF0F70
:10002000FF0FFF0FFF0FFF0FFF0FFF0FFF0FFF0F60
:10003000FF0FFF0FFF0FFF0FFF0FFF0FFF0FFF0F50
:020000040030CA
:090000008CFFF7FF9FFFFFFFFFDB
:00000001FF
