:020000040000FA
:04000000FEEF7FF0A0
:10FD4900011200120012000A6A120003011E8F122A
:10FD59000001C508F502C509F51200FEEC7EF0C4E4
:10FD6900EC7EF0DEEC7EF03AEF7FF00B5064EC7F36
:10FD7900F0030E0B1802E10B6A12000B2A12006243
:10FD89000E0001AD6F700EAE6FAF6BB36B020EB1AB
:10FD99006FB26BB06BAC6B1200026E0A0E0224D903
:10FDA9006EDA6A050EDA2201B002D0DF9801D0DFDF
:10FDB900881200040E0301206F1F6B216B1E0E1D9C
:10FDC9006F1C6B000E016A026AADEC7EF0B6961EDE
:10FDD9006B1200490EF66EFD0EF76E000EF86E09F5
:10FDE900006100D4F30BF50A6A000EF86E000112E7
:10FDF900EF7FF0D69AB490D680000E016A026AA508
:10FE0900EC7EF0B990D682000E016A026AA6EC7EF9
:10FE1900F0BD90D684016A026A000CB2EC7EF00053
:10FE29000E64EC7FF0A8EC7EF0AAEC7EF0076AB6CF
:10FE3900A60BD0B696072A010ED0B8000E016E00A7
:10FE49000ED1EC7EF0B1EC7FF0FA0E0718F0E1C0AC
:10FE5900BA03D0066A062A01D0066A063A0646C0DF
:10FE6900500618DF0B0618C06EE1D7BE6ABF6AC01C
:10FE79006A1D0EC66EF00EC76EDB0EC86E040E0448
:10FE890001006F300E086F050E106F016B096B11C1
:10FE99006B026B0A6B126B370E036FF00E0B6F134D
:10FEA900693F0E046FF00E0C6F1469056B066B0742
:10FEB9006B0D6B0E6B0F6B156B166B176B120003CB
:10FEC9006E2AD0BE9ABE9236D8A46B020EA56FA632
:10FED9006FA76BA96B880EA36F880CBE8ABE922A86
:10FEE900D83F0EA46F120EA56F820E2CD0BE9ABEFB
:10FEF9008221D83A0EA46F130EA56F800E23D0BEAF
:10FF09008ABE8A18D8A46B220EA56FA66BA76BA907
:10FF19006B800EA36F800C0350016E026A0250D8E9
:10FF2900A412000150CEE0010AD8E0030ADFE00183
:10FF39000AE6E012000001A36BA46BA56BA66BA7F0
:10FF49006BA96B1200A66FA76BA96BA4518F0B301D
:10FF590009A46F800EA36F800C056A3ED8DFA81C28
:10FF6900D03BD8DF500F0B0F0A17E036D8DF500F00
:10FF79000B046E042A38D830D8DF500F0B0C0A0254
:10FF8900E12BD8DF8C29D8DFAC07D026D8DFBA041B
:10FF9900D0BAEC7EF021D8DF8A1FD8DFB819D01C7F
:10FFA900D8DF500F0B15E018D8DF500F0B046E0483
:10FFB900061AD812D8DF500F0B040A02E10DD8DF58
:10FFC9009C0BD8DFBC05D008D8DFAA02D005D8DF42
:10FFD9009A052A0550C2E012000A0E0524D96EDAE4
:10FFE9006A050EDA221200DF500418F00B0418DF3C
:07FFF9006E1200EEEF7EF036
:020000040020DA
:10000000FF0FFF0FFF0FFF0FFF0FFF0FFF0FFF0F80
:10001000FF0FFF0FFF0FFF0FFF0FFF0FFF0FFF0F70
:020000040030CA
:0A0000008CFFFFFF9FFFFFFFFFFFD3
:00000001FF
