:020000040000FA
:040000000DEF00F010
:0400080070EF01F0A4
:10001800FF00F3EF00F0056A3ED8DFA81CD03BD8FC
:10002800DF500F0B0F0A17E036D8DF500F0B046EA6
:10003800042A38D830D8DF500F0B0C0A02E12BD82D
:10004800DF8C29D8DFAC07D026D8DFBA04D04CEC37
:1000580001F021D8DF8A1FD8DFB819D01CD8DF50AB
:100068000F0B15E018D8DF500F0B046E04061AD8D2
:1000780012D8DF500F0B040A02E10DD8DF9C0BD811
:10008800DFBC05D008D8DFAA02D005D8DF9A052A38
:100098000550C2E012000A0E0524D96EDA6A050E70
:1000A800DA221200DF500418F00B0418DF6E120079
:1000B800036E23D0BE9ABE922FD843EF01F0BE8ABA
:1000C800BE922AD83F0EA46F120EA56F820E2CD0B6
:1000D800BE9ABE8221D83A0EA46F130EA56F800E69
:1000E80023D0BE8ABE8A18D8A46B220EA56FA66B31
:1000F800A76BA96B800EA36F800C0350016E026A78
:100108000250D8A412000150D5E0010AD8E0030A31
:10011800DFE0010AE6E012000001A36BA46BA56B07
:10012800A66BA76BA96B1200A66FA76BA96BA4514E
:100138008F0B3009A46F800EA36F800CBE6ABF6A54
:10014800C06A1D0EC66EF00EC76EDB0EC86ECF0EEF
:100158000401106FF00E086F150E006F096B016B2C
:10016800116B026B0A6B126B370E036FF00E0B6F7D
:1001780013693F0E046FF00E0C6F146917991689F6
:1001880015890E0E016E030E026E76EC01F0A88E34
:10019800120029EC01F083EC01F080EC01F0076A11
:1001A80056EC01F000090AE0072A010ED0B8000E4B
:1001B800016E000E1CEC01F00FEC00F0FA0E0718AF
:1001C800EFE1C0BA03D0066A062A01D0066A063AE9
:1001D8000646C0500618DF0B0618C06EE1D7100E91
:1001E800F66E030EF76E000EF86E09006100D4F388
:1001F8000BF50A6A0401080E5D6F000E5E6F000EB3
:100208005F6F000EF86E0001CDEF00F00850091086
:100218000CE001D80AD00500FA6E0850FD6E0950AE
:10022800FE6EF850FF6EFA50120004011799120082
:10023800026E0A0E0224D96EDA6A050EDA2201B0BD
:1002480002D0DF9801D0DF88120085EC01F068EC5D
:1002580001F0A2EC00F05FEC01F035EC01F041EFA9
:1002680001F0040E0301206F1F6B216B1E0E1D6F22
:100278001C6BB696800E1E6F800C000100D0A46B1C
:10028800020EA56FA66FA76BA96B880EA36F880CCB
:100298000B505CEC00F0030E0B1802E10B6A120025
:1002A8000B2A1200010EB6A6000E016E015001E0E5
:1002B800B69601501200620E0001AD6FAF6BB36BC2
:1002C800B16BB06BAC6B12000001636B646B656B58
:1002D800666B676B686B1200A8BEB3AE11007BEC4F
:1002E80001F0110001C508F502C509F51200040165
:1002F80017B90AEC01F0120003011E8F12000A6AF6
:090308001200D69A120012000145
:020000040020DA
:10000000FF0FFF0FFF0FFF0FFF0FFF0FFF0FFF0F80
:10001000FF0FFF0FFF0FFF0FFF0FFF0FFF0FFF0F70
:020000040030CA
:0A000000ECFFF7FF9FFFFFFFFFFF7B
:00000001FF
