:04000000FEEF7FF0A0
:1016000000301A3A1B000000000C1B000000000E06
:101610000E6E110E0E24D96EDA6A050EDA22DFA8DC
:1016200014EF0BF016EF0BF072EF0BF0110E0E240F
:10163000D96EDA6A050EDA22DF500F0B0F0AD8B422
:1016400024EF0BF026EF0BF072EF0BF0010E0C6E97
:10165000110E0E24D96EDA6A050EDA22DF500F0B56
:101660000D6E0C500D26DF500D18F00B0D18DF6EAF
:10167000110E0E24D96EDA6A050EDA22DF500F0B36
:101680000C0AD8A446EF0BF048EF0BF04FEF0BF02D
:10169000110E0E24D96EDA6A050EDA22DF8C110ED5
:1016A0000E24D96EDA6A050EDA22DFAC5AEF0BF09F
:1016B0005CEF0BF072EF0BF0110E0E24D96EDA6AAC
:1016C000050EDA22DFBA67EF0BF069EF0BF072EF6D
:1016D0000BF02EEC0DF0110E0E24D96EDA6A050E09
:1016E000DA22DF8A110E0E24D96EDA6A050EDA22AA
:1016F000DFB87DEF0BF07FEF0BF0D9EF0BF0110EA1
:101700000E24D96EDA6A050EDA22DF500F0B0009BB
:10171000D8B48DEF0BF08FEF0BF0D9EF0BF0010E7B
:101720000C6E110E0E24D96EDA6A050EDA22DF5025
:101730000F0B0D6E0C500D5EDF500D18F00B0D18D9
:10174000DF6E110E0E24D96EDA6A050EDA22DF5032
:101750000F0B040AD8A4AFEF0BF0B1EF0BF0B8EF0A
:101760000BF0110E0E24D96EDA6A050EDA22DF9C18
:10177000110E0E24D96EDA6A050EDA22DFBCC3EF31
:101780000BF0C5EF0BF0D9EF0BF0110E0E24D96E54
:10179000DA6A050EDA22DFAAD0EF0BF0D2EF0BF0F7
:1017A000D9EF0BF0110E0E24D96EDA6A050EDA228B
:1017B000DF9A0E2A0E50D8B4E0EF0BF0E2EF0BF0F8
:1017C00009EF0BF012000B6E62EF0CF0BE9ABE92A6
:1017D000000E0001A36F000EA46F000EA56F000E97
:1017E000A66F000EA76F000EA96F000EA46F020E69
:1017F000A56F020EA66F000EA76F000EA96F880ED0
:10180000A36F7FEF0CF0BE8ABE92000E0001A36FA3
:10181000000EA46F000EA56F000EA66F000EA76F3E
:10182000000EA96F3F0EA46F120EA56F820EA66F59
:10183000000EA76F000EA96FA4518F0B3009A46F83
:10184000800EA36F7FEF0CF0BE9ABE82000E0001E7
:10185000A36F000EA46F000EA56F000EA66F000E02
:10186000A76F000EA96F3A0EA46F130EA56F800E1E
:10187000A66F000EA76F000EA96FA4518F0B300941
:10188000A46F800EA36F7FEF0CF0BE8ABE8A000E9D
:101890000001A36F000EA46F000EA56F000EA66FCF
:1018A000000EA76F000EA96F000EA46F220EA56F89
:1018B000000EA66F000EA76F000EA96F800EA36F1B
:1018C0007FEF0CF00B50096E0A6A0A50000AD8B478
:1018D0006CEF0CF07FEF0CF00950000AD8B4E6EF83
:1018E0000BF0010AD8B403EF0CF0030AD8B424EFCC
:1018F0000CF0010AD8B445EF0CF07FEF0CF01200A9
:101900007BEC0DF0000EE3EC0BF09AEC0DF09DEC8F
:101910000DF0000E106EB6A690EF0CF092EF0CF0EA
:10192000A3EF0CF0B696102AD0A899EF0CF09CEF1C
:101930000CF0010E9DEF0CF0000E096E000E6EEC27
:101940000DF007EC0BF0FA0E1018D8A4AAEF0CF06B
:10195000ACEF0CF08BEF0CF0C0BAB1EF0CF0B4EFC1
:101960000CF0010EB5EF0CF0000EFF0A0F6E0F3AEF
:101970000F46C0500F18DF0B0F18C06E89EF0CF028
:10198000FEEF7FF0000EBE6E000EBF6E020EC06E48
:101990001D0EC66EF00EC76EDB0EC86E150E04016E
:1019A000006FF00E086FCF0E106F000E016F000E6B
:1019B000096F010E116F000E026F000E0A6F000E0C
:1019C000126F370E036FF00E0B6F13693F0E046F2B
:1019D000F00E0C6F1469000E056F000E066F000EFE
:1019E000076F000E0D6F000E0E6F000E0F6F000ED2
:1019F000156F000E166F000E176F1200D69AB49076
:101A0000D680000E096E000E0A6E95EC0DF0B990AE
:101A1000D682000E096E000E0A6E90EC0DF0BD909D
:101A2000D684000E096E000E0A6E8BEC0DF01200CB
:101A3000040E0301206F000E1F6F000E216F030EB6
:101A40001D6F000E1C6F000E096E000E0A6E86ECF4
:101A50000DF0B696B00E03011E6F12001250E3ECAB
:101A60000BF0030E1218D8A438EF0DF03AEF0DF07A
:101A70003EEF0DF0000E126E3FEF0DF0122A120035
:101A8000620E0001AD6F700EAE6F000EAF6F000EF4
:101A9000B36F020EB16F000EB26F000EB06F000E8A
:101AA000AC6F1200400EF66E1B0EF76E000EF86E55
:101AB00009006100D4F312F5116A000180EF0CF007
:101AC000000E0001A46F220EA56F000EA66F000E7F
:101AD000A76F000EA96F800EA36F12000A6E110E81
:101AE0000A24D96EDA6A050EDA2209B002D0DF982C
:101AF00001D0DF88120040EC0DF0C2EC0CF060EC7D
:101B00000DF018EC0DF0FEEC0CF0120009C501F51B
:101B10000AC502F5120009C503F50AC504F512004D
:101B200009C505F50AC506F5120009C507F50AC578
:101B300008F51200000E116E120003011E8F120034
:011B400001A3
:04FFFC0052EF0DF0C3
:020000040020DA
:10000000FF0FFF0FFF0FFF0FFF0FFF0FFF0FFF0F80
:10001000FF0FFF0FFF0FFF0FFF0FFF0FFF0FFF0F70
:020000040030CA
:0A0000008CFFF7FF9FFFFFFFFFFFDB
:00000001FF
