:020000040000FA
:040000000DEF00F010
:0400080053EF02F0C0
:10001800FF0015EF02F0000E066E0B0E0624D96ED7
:10002800DA6A050EDA22DFA81CEF00F01EEF00F0F6
:100038007AEF00F00B0E0624D96EDA6A050EDA2282
:10004800DF500F0B0F0AD8B42CEF00F02EEF00F0A2
:100058007AEF00F0010E046E0B0E0624D96EDA6AF0
:10006800050EDA22DF500F0B056E04500526DF500F
:100078000518F00B0518DF6E0B0E0624D96EDA6A28
:10008800050EDA22DF500F0B0C0AD8A44EEF00F051
:1000980050EF00F057EF00F00B0E0624D96EDA6A25
:1000A800050EDA22DF8C0B0E0624D96EDA6A050EED
:1000B800DA22DFAC62EF00F064EF00F07AEF00F0D4
:1000C8000B0E0624D96EDA6A050EDA22DFBA6FEF54
:1000D80000F071EF00F07AEF00F041EC02F00B0E47
:1000E8000624D96EDA6A050EDA22DF8A0B0E062498
:1000F800D96EDA6A050EDA22DFB885EF00F087EFED
:1001080000F0E1EF00F00B0E0624D96EDA6A050E56
:10011800DA22DF500F0B0009D8B495EF00F097EF03
:1001280000F0E1EF00F0010E046E0B0E0624D96E0C
:10013800DA6A050EDA22DF500F0B056E0450055EF1
:10014800DF500518F00B0518DF6E0B0E0624D96E6C
:10015800DA6A050EDA22DF500F0B040AD8A4B7EFCB
:1001680000F0B9EF00F0C0EF00F00B0E0624D96ED6
:10017800DA6A050EDA22DF9C0B0E0624D96EDA6ADB
:10018800050EDA22DFBCCBEF00F0CDEF00F0E1EF97
:1001980000F00B0E0624D96EDA6A050EDA22DFAA01
:1001A800D8EF00F0DAEF00F0E1EF00F00B0E0624D4
:1001B800D96EDA6A050EDA22DF9A062A0650D8B412
:1001C800E8EF00F0EAEF00F011EF00F01200036E24
:1001D8006AEF01F0BE9ABE92000E0001A36F000EF6
:1001E800A46F000EA56F000EA66F000EA76F000E7D
:1001F800A96F000EA46F020EA56F020EA66F000E67
:10020800A76F000EA96F880EA36F87EF01F0BE8A53
:10021800BE92000E0001A36F000EA46F000EA56F22
:10022800000EA66F000EA76F000EA96F3F0EA46FF9
:10023800120EA56F820EA66F000EA76F000EA96F93
:10024800A4518F0B3009A46F800EA36F87EF01F0C4
:10025800BE9ABE82000E0001A36F000EA46F000EAE
:10026800A56F000EA66F000EA76F000EA96F3A0EBD
:10027800A46F130EA56F800EA66F000EA76F000E59
:10028800A96FA4518F0B3009A46F800EA36F87EF5D
:1002980001F0BE8ABE8A000E0001A36F000EA46F93
:1002A800000EA56F000EA66F000EA76F000EA96FB7
:1002B800000EA46F220EA56F000EA66F000EA76F8A
:1002C800000EA96F800EA36F87EF01F00350016E37
:1002D800026A0250000AD8B474EF01F087EF01F007
:1002E8000150000AD8B4EEEF00F0010AD8B40BEFC1
:1002F80001F0030AD8B42CEF01F0010AD8B44DEF8D
:1003080001F087EF01F01200AAEC02F0C7EC02F04E
:10031800CAEC02F0000E086E2CEC02F00009D8B40A
:1003280098EF01F09AEF01F0AAEF01F0082AD0A89F
:10033800A0EF01F0A3EF01F0010EA4EF01F0000E11
:10034800016E000E9DEC02F00FEC00F0FA0E08189A
:10035800D8A4B1EF01F0B3EF01F090EF01F0C0AA1B
:10036800B8EF01F0BCEF01F0076A072ABDEF01F012
:10037800076A073A0746C0500718DF0B0718C06E10
:1003880090EF01F00DEF00F0000EBE6E000EBF6E94
:10039800000EC06E1D0EC66EF00EC76EDB0EC86E68
:1003A800CF0E0401106FF00E086F150E006F000ECF
:1003B800096F000E016F000E116F000E026F000E24
:1003C8000A6F000E126F370E036FF00E0B6F136972
:1003D8003F0E046FF00E0C6F146917991689158972
:1003E8009E0E016E050E026EC2EC02F0A88E12007F
:1003F80009500A10D8B403EF02F005EF02F012EF2B
:1004080002F002D812EF02F00500FA6E0950FD6EF4
:100418000A50FE6EF850FF6EFA5012000401179948
:100428001200A00EF66E050EF76E000EF86E0900AB
:100438006100D4F30CF50B6A0401080E5D6F000E21
:100448005E6F000E5F6F000EF86E000188EF01F01E
:10045800B6B631EF02F034EF02F0010E35EF02F0DC
:10046800000E016E0150D8B43CEF02F03EEF02F0EE
:100478003FEF02F0B696015012000C50EBEC00F082
:10048800030E0C18D8A44BEF02F04DEF02F051EF19
:1004980002F0000E0C6E52EF02F00C2A1200A8AE09
:1004A80058EF02F05AEF02F063EF02F0B3AE5FEFDD
:1004B80002F061EF02F063EF02F0B7EC02F0110016
:1004C800040E0301206F000E1F6F000E216F1E0E19
:1004D8001D6F000E1C6FB696800E1E6F1200000E68
:1004E8000001636F000E646F000E656F000E666F8B
:1004F800000E676F000E686F1200620E0001AD6F8C
:10050800000EAF6F000EB36F000EB16F000EB06F2C
:10051800000EAC6F1200000E0001A46F020EA56F52
:10052800020EA66F000EA76F000EA96F880EA36FAC
:100538001200026E0B0E0224D96EDA6A050EDA2258
:1005480001B002D0DF9801D0DF881200CDEC02F0B4
:1005580073EC02F0C8EC01F081EC02F064EC02F0FC
:100568008FEC02F01200040117A9BDEF02F0BFEFF3
:1005780002F0C1EF02F0FCEC01F0120001C509F530
:1005880002C50AF51200000E0B6E120003011E8F41
:090598001200D69A1200120001B3
:020000040020DA
:10000000FF0FFF0FFF0FFF0FFF0FFF0FFF0FFF0F80
:10001000FF0FFF0FFF0FFF0FFF0FFF0FFF0FFF0F70
:020000040030CA
:0A000000ECFFF7FF9FFFFFFFFFFF7B
:00000001FF
